:040000008BEF3FF053
:107F160000018EEF3FF00F0EC16E010E936E000E44
:107F2600956E81AC99EF3FF09BEF3FF09CEF3FF0F1
:107F36008C8C81AAA1EF3FF0A3EF3FF0A4EF3FF0B6
:107F46008C8A81A8A9EF3FF0ABEF3FF0ACEF3FF092
:107F56008C8881A6B1EF3FF0B3EF3FF0B4EF3FF06E
:107F66008C8681A4B9EF3FF0BBEF3FF0BCEF3FF04A
:107F76008C8481A4C1EF3FF0C3EF3FF0CAEF3FF01E
:107F860081A2C8EF3FF0CAEF3FF0CBEF3FF08C92F3
:107F960081B0D0EF3FF0D2EF3FF0D3EF3FF08C92BD
:107FA60081ACD8EF3FF0DAEF3FF0FEEF3FF081AA69
:107FB600DFEF3FF0E1EF3FF0FEEF3FF081A8E6EFA5
:107FC6003FF0E8EF3FF0FEEF3FF081A6EDEF3FF028
:107FD600EFEF3FF0FEEF3FF081A4F4EF3FF0F6EF56
:107FE6003FF0FEEF3FF081A2FBEF3FF0FDEF3FF0E9
:0A7FF600FEEF3FF08C8200EF00F078
:020000040020DA
:08000000FFFFFFFFFFFFFFFF00
:020000040030CA
:0E000000000C1F1FFF8385FF0FC00FE00F4095
:00000001FF
